{
  "contractName": "SolnSquareVerifier",
  "abi": [
    {
      "constant": true,
      "inputs": [
        {
          "name": "interfaceId",
          "type": "bytes4"
        }
      ],
      "name": "supportsInterface",
      "outputs": [
        {
          "name": "",
          "type": "bool"
        }
      ],
      "payable": false,
      "stateMutability": "view",
      "type": "function"
    },
    {
      "constant": false,
      "inputs": [
        {
          "name": "val",
          "type": "bool"
        }
      ],
      "name": "pause",
      "outputs": [],
      "payable": false,
      "stateMutability": "nonpayable",
      "type": "function"
    },
    {
      "constant": true,
      "inputs": [],
      "name": "name",
      "outputs": [
        {
          "name": "",
          "type": "string"
        }
      ],
      "payable": false,
      "stateMutability": "view",
      "type": "function"
    },
    {
      "constant": true,
      "inputs": [
        {
          "name": "tokenId",
          "type": "uint256"
        }
      ],
      "name": "getApproved",
      "outputs": [
        {
          "name": "",
          "type": "address"
        }
      ],
      "payable": false,
      "stateMutability": "view",
      "type": "function"
    },
    {
      "constant": false,
      "inputs": [
        {
          "name": "to",
          "type": "address"
        },
        {
          "name": "tokenId",
          "type": "uint256"
        }
      ],
      "name": "approve",
      "outputs": [],
      "payable": false,
      "stateMutability": "nonpayable",
      "type": "function"
    },
    {
      "constant": true,
      "inputs": [],
      "name": "totalSupply",
      "outputs": [
        {
          "name": "",
          "type": "uint256"
        }
      ],
      "payable": false,
      "stateMutability": "view",
      "type": "function"
    },
    {
      "constant": true,
      "inputs": [],
      "name": "basetokenURI",
      "outputs": [
        {
          "name": "",
          "type": "string"
        }
      ],
      "payable": false,
      "stateMutability": "view",
      "type": "function"
    },
    {
      "constant": false,
      "inputs": [
        {
          "name": "from",
          "type": "address"
        },
        {
          "name": "to",
          "type": "address"
        },
        {
          "name": "tokenId",
          "type": "uint256"
        }
      ],
      "name": "transferFrom",
      "outputs": [],
      "payable": false,
      "stateMutability": "nonpayable",
      "type": "function"
    },
    {
      "constant": false,
      "inputs": [
        {
          "name": "_myid",
          "type": "bytes32"
        },
        {
          "name": "_result",
          "type": "string"
        }
      ],
      "name": "__callback",
      "outputs": [],
      "payable": false,
      "stateMutability": "nonpayable",
      "type": "function"
    },
    {
      "constant": true,
      "inputs": [
        {
          "name": "owner",
          "type": "address"
        },
        {
          "name": "index",
          "type": "uint256"
        }
      ],
      "name": "tokenOfOwnerByIndex",
      "outputs": [
        {
          "name": "",
          "type": "uint256"
        }
      ],
      "payable": false,
      "stateMutability": "view",
      "type": "function"
    },
    {
      "constant": false,
      "inputs": [
        {
          "name": "_myid",
          "type": "bytes32"
        },
        {
          "name": "_result",
          "type": "string"
        },
        {
          "name": "_proof",
          "type": "bytes"
        }
      ],
      "name": "__callback",
      "outputs": [],
      "payable": false,
      "stateMutability": "nonpayable",
      "type": "function"
    },
    {
      "constant": false,
      "inputs": [
        {
          "name": "to",
          "type": "address"
        },
        {
          "name": "tokenId",
          "type": "uint256"
        }
      ],
      "name": "mint",
      "outputs": [
        {
          "name": "",
          "type": "bool"
        }
      ],
      "payable": false,
      "stateMutability": "nonpayable",
      "type": "function"
    },
    {
      "constant": false,
      "inputs": [
        {
          "name": "from",
          "type": "address"
        },
        {
          "name": "to",
          "type": "address"
        },
        {
          "name": "tokenId",
          "type": "uint256"
        }
      ],
      "name": "safeTransferFrom",
      "outputs": [],
      "payable": false,
      "stateMutability": "nonpayable",
      "type": "function"
    },
    {
      "constant": true,
      "inputs": [
        {
          "name": "index",
          "type": "uint256"
        }
      ],
      "name": "tokenByIndex",
      "outputs": [
        {
          "name": "",
          "type": "uint256"
        }
      ],
      "payable": false,
      "stateMutability": "view",
      "type": "function"
    },
    {
      "constant": true,
      "inputs": [
        {
          "name": "tokenId",
          "type": "uint256"
        }
      ],
      "name": "ownerOf",
      "outputs": [
        {
          "name": "",
          "type": "address"
        }
      ],
      "payable": false,
      "stateMutability": "view",
      "type": "function"
    },
    {
      "constant": true,
      "inputs": [
        {
          "name": "owner",
          "type": "address"
        }
      ],
      "name": "balanceOf",
      "outputs": [
        {
          "name": "",
          "type": "uint256"
        }
      ],
      "payable": false,
      "stateMutability": "view",
      "type": "function"
    },
    {
      "constant": true,
      "inputs": [],
      "name": "owner",
      "outputs": [
        {
          "name": "",
          "type": "address"
        }
      ],
      "payable": false,
      "stateMutability": "view",
      "type": "function"
    },
    {
      "constant": true,
      "inputs": [],
      "name": "symbol",
      "outputs": [
        {
          "name": "",
          "type": "string"
        }
      ],
      "payable": false,
      "stateMutability": "view",
      "type": "function"
    },
    {
      "constant": false,
      "inputs": [
        {
          "name": "to",
          "type": "address"
        },
        {
          "name": "approved",
          "type": "bool"
        }
      ],
      "name": "setApprovalForAll",
      "outputs": [],
      "payable": false,
      "stateMutability": "nonpayable",
      "type": "function"
    },
    {
      "constant": false,
      "inputs": [
        {
          "name": "from",
          "type": "address"
        },
        {
          "name": "to",
          "type": "address"
        },
        {
          "name": "tokenId",
          "type": "uint256"
        },
        {
          "name": "_data",
          "type": "bytes"
        }
      ],
      "name": "safeTransferFrom",
      "outputs": [],
      "payable": false,
      "stateMutability": "nonpayable",
      "type": "function"
    },
    {
      "constant": true,
      "inputs": [
        {
          "name": "tokenId",
          "type": "uint256"
        }
      ],
      "name": "tokenURI",
      "outputs": [
        {
          "name": "",
          "type": "string"
        }
      ],
      "payable": false,
      "stateMutability": "view",
      "type": "function"
    },
    {
      "constant": true,
      "inputs": [],
      "name": "verifierContract",
      "outputs": [
        {
          "name": "",
          "type": "address"
        }
      ],
      "payable": false,
      "stateMutability": "view",
      "type": "function"
    },
    {
      "constant": true,
      "inputs": [
        {
          "name": "owner",
          "type": "address"
        },
        {
          "name": "operator",
          "type": "address"
        }
      ],
      "name": "isApprovedForAll",
      "outputs": [
        {
          "name": "",
          "type": "bool"
        }
      ],
      "payable": false,
      "stateMutability": "view",
      "type": "function"
    },
    {
      "constant": false,
      "inputs": [
        {
          "name": "newOwner",
          "type": "address"
        }
      ],
      "name": "transferOwnership",
      "outputs": [],
      "payable": false,
      "stateMutability": "nonpayable",
      "type": "function"
    },
    {
      "inputs": [
        {
          "name": "verifierAddress",
          "type": "address"
        }
      ],
      "payable": false,
      "stateMutability": "nonpayable",
      "type": "constructor"
    },
    {
      "anonymous": false,
      "inputs": [
        {
          "indexed": false,
          "name": "tokenid",
          "type": "uint256"
        },
        {
          "indexed": false,
          "name": "to",
          "type": "address"
        }
      ],
      "name": "SolutionAdded",
      "type": "event"
    },
    {
      "anonymous": false,
      "inputs": [
        {
          "indexed": true,
          "name": "from",
          "type": "address"
        },
        {
          "indexed": true,
          "name": "to",
          "type": "address"
        },
        {
          "indexed": true,
          "name": "tokenId",
          "type": "uint256"
        }
      ],
      "name": "Transfer",
      "type": "event"
    },
    {
      "anonymous": false,
      "inputs": [
        {
          "indexed": true,
          "name": "owner",
          "type": "address"
        },
        {
          "indexed": true,
          "name": "approved",
          "type": "address"
        },
        {
          "indexed": true,
          "name": "tokenId",
          "type": "uint256"
        }
      ],
      "name": "Approval",
      "type": "event"
    },
    {
      "anonymous": false,
      "inputs": [
        {
          "indexed": true,
          "name": "owner",
          "type": "address"
        },
        {
          "indexed": true,
          "name": "operator",
          "type": "address"
        },
        {
          "indexed": false,
          "name": "approved",
          "type": "bool"
        }
      ],
      "name": "ApprovalForAll",
      "type": "event"
    },
    {
      "anonymous": false,
      "inputs": [
        {
          "indexed": false,
          "name": "from",
          "type": "address"
        }
      ],
      "name": "Paused",
      "type": "event"
    },
    {
      "anonymous": false,
      "inputs": [
        {
          "indexed": false,
          "name": "from",
          "type": "address"
        }
      ],
      "name": "Unpaused",
      "type": "event"
    },
    {
      "anonymous": false,
      "inputs": [
        {
          "indexed": false,
          "name": "newOwner",
          "type": "address"
        }
      ],
      "name": "OwnershipTransferred",
      "type": "event"
    },
    {
      "constant": false,
      "inputs": [
        {
          "name": "_to",
          "type": "address"
        },
        {
          "name": "_tokenId",
          "type": "uint256"
        },
        {
          "name": "key",
          "type": "bytes32"
        }
      ],
      "name": "AddSolution",
      "outputs": [],
      "payable": false,
      "stateMutability": "nonpayable",
      "type": "function"
    },
    {
      "constant": false,
      "inputs": [
        {
          "name": "_to",
          "type": "address"
        },
        {
          "name": "_tokenId",
          "type": "uint256"
        },
        {
          "name": "a",
          "type": "uint256[2]"
        },
        {
          "name": "a_p",
          "type": "uint256[2]"
        },
        {
          "name": "b",
          "type": "uint256[2][2]"
        },
        {
          "name": "b_p",
          "type": "uint256[2]"
        },
        {
          "name": "c",
          "type": "uint256[2]"
        },
        {
          "name": "c_p",
          "type": "uint256[2]"
        },
        {
          "name": "h",
          "type": "uint256[2]"
        },
        {
          "name": "k",
          "type": "uint256[2]"
        },
        {
          "name": "input",
          "type": "uint256[2]"
        }
      ],
      "name": "CanMintToken",
      "outputs": [],
      "payable": false,
      "stateMutability": "nonpayable",
      "type": "function"
    },
    {
      "constant": false,
      "inputs": [
        {
          "name": "_to",
          "type": "address"
        },
        {
          "name": "_tokenId",
          "type": "uint256"
        },
        {
          "name": "a",
          "type": "uint256[2]"
        },
        {
          "name": "a_p",
          "type": "uint256[2]"
        },
        {
          "name": "b",
          "type": "uint256[2][2]"
        },
        {
          "name": "b_p",
          "type": "uint256[2]"
        },
        {
          "name": "c",
          "type": "uint256[2]"
        },
        {
          "name": "c_p",
          "type": "uint256[2]"
        },
        {
          "name": "h",
          "type": "uint256[2]"
        },
        {
          "name": "k",
          "type": "uint256[2]"
        },
        {
          "name": "input",
          "type": "uint256[2]"
        }
      ],
      "name": "mintToken",
      "outputs": [],
      "payable": false,
      "stateMutability": "nonpayable",
      "type": "function"
    }
  ],
  "bytecode": "0x60806040523480156200001157600080fd5b506040516020806200480b833981018060405260208110156200003357600080fd5b81019080805190602001909291905050506040805190810160405280601381526020017f5265616c20457374617465204c697374696e67000000000000000000000000008152506040805190810160405280600381526020017f52454c0000000000000000000000000000000000000000000000000000000000815250606060405190810160405280603f8152602001620047cc603f9139336000806101000a81548173ffffffffffffffffffffffffffffffffffffffff021916908373ffffffffffffffffffffffffffffffffffffffff1602179055507f04dba622d284ed0014ee4b9a6a68386be1a4c08a4913ae272de89199cc6861636000809054906101000a900473ffffffffffffffffffffffffffffffffffffffff16604051808273ffffffffffffffffffffffffffffffffffffffff1673ffffffffffffffffffffffffffffffffffffffff16815260200191505060405180910390a160008060146101000a81548160ff021916908315150217905550620001e66301ffc9a77c01000000000000000000000000000000000000000000000000000000000262000333640100000000026401000000009004565b620002236380ac58cd7c01000000000000000000000000000000000000000000000000000000000262000333640100000000026401000000009004565b6200026063780e9d637c01000000000000000000000000000000000000000000000000000000000262000333640100000000026401000000009004565b82600f908051906020019062000278929190620003f1565b50816010908051906020019062000291929190620003f1565b508060119080519060200190620002aa929190620003f1565b50620002e8635b5e139f7c01000000000000000000000000000000000000000000000000000000000262000333640100000000026401000000009004565b50505080601360006101000a81548173ffffffffffffffffffffffffffffffffffffffff021916908373ffffffffffffffffffffffffffffffffffffffff16021790555050620004a0565b63ffffffff7c010000000000000000000000000000000000000000000000000000000002817bffffffffffffffffffffffffffffffffffffffffffffffffffffffff1916141515156200038557600080fd5b6001806000837bffffffffffffffffffffffffffffffffffffffffffffffffffffffff19167bffffffffffffffffffffffffffffffffffffffffffffffffffffffff1916815260200190815260200160002060006101000a81548160ff02191690831515021790555050565b828054600181600116156101000203166002900490600052602060002090601f016020900481019282601f106200043457805160ff191683800117855562000465565b8280016001018555821562000465579182015b828111156200046457825182559160200191906001019062000447565b5b50905062000474919062000478565b5090565b6200049d91905b80821115620004995760008160009055506001016200047f565b5090565b90565b61431c80620004b06000396000f3fe608060405234801561001057600080fd5b50600436106101c6576000357c01000000000000000000000000000000000000000000000000000000009004806342842e0e11610116578063b88d4fde116100b4578063cf6956881161008e578063cf69568814610efe578063d698b7a914610f48578063e985e9c514611218578063f2fde38b14611294576101c6565b8063b88d4fde14610cfa578063b9bec94614610dff578063c87b56dd14610e57576101c6565b806370a08231116100f057806370a0823114610b855780638da5cb5b14610bdd57806395d89b4114610c27578063a22cb46514610caa576101c6565b806342842e0e14610a675780634f6ccce714610ad55780636352211e14610b17576101c6565b8063232fb07d116101835780632f745c591161015d5780632f745c59146105735780632f89bff8146105d557806338bbfa50146108a557806340c10f1914610a01576101c6565b8063232fb07d146103bd57806323b872dd1461044057806327dc297e146104ae576101c6565b806301ffc9a7146101cb57806302329a291461023057806306fdde0314610260578063081812fc146102e3578063095ea7b31461035157806318160ddd1461039f575b600080fd5b610216600480360360208110156101e157600080fd5b8101908080357bffffffffffffffffffffffffffffffffffffffffffffffffffffffff191690602001909291905050506112d8565b604051808215151515815260200191505060405180910390f35b61025e6004803603602081101561024657600080fd5b81019080803515159060200190929190505050611340565b005b6102686114f3565b6040518080602001828103825283818151815260200191508051906020019080838360005b838110156102a857808201518184015260208101905061028d565b50505050905090810190601f1680156102d55780820380516001836020036101000a031916815260200191505b509250505060405180910390f35b61030f600480360360208110156102f957600080fd5b8101908080359060200190929190505050611595565b604051808273ffffffffffffffffffffffffffffffffffffffff1673ffffffffffffffffffffffffffffffffffffffff16815260200191505060405180910390f35b61039d6004803603604081101561036757600080fd5b81019080803573ffffffffffffffffffffffffffffffffffffffff169060200190929190803590602001909291905050506115d2565b005b6103a76117af565b6040518082815260200191505060405180910390f35b6103c56117bc565b6040518080602001828103825283818151815260200191508051906020019080838360005b838110156104055780820151818401526020810190506103ea565b50505050905090810190601f1680156104325780820380516001836020036101000a031916815260200191505b509250505060405180910390f35b6104ac6004803603606081101561045657600080fd5b81019080803573ffffffffffffffffffffffffffffffffffffffff169060200190929190803573ffffffffffffffffffffffffffffffffffffffff1690602001909291908035906020019092919050505061185e565b005b610571600480360360408110156104c457600080fd5b8101908080359060200190929190803590602001906401000000008111156104eb57600080fd5b8201836020820111156104fd57600080fd5b8035906020019184600183028401116401000000008311171561051f57600080fd5b91908080601f016020809104026020016040519081016040528093929190818152602001838380828437600081840152601f19601f820116905080830192505050505050509192919290505050611883565b005b6105bf6004803603604081101561058957600080fd5b81019080803573ffffffffffffffffffffffffffffffffffffffff169060200190929190803590602001909291905050506118c6565b6040518082815260200191505060405180910390f35b6108a360048036036102c08110156105ec57600080fd5b81019080803573ffffffffffffffffffffffffffffffffffffffff1690602001909291908035906020019092919080604001906002806020026040519081016040528092919082600260200280828437600081840152601f19601f820116905080830192505050505050919291929080604001906002806020026040519081016040528092919082600260200280828437600081840152601f19601f82011690508083019250505050505091929192908060800190600280602002604051908101604052809291906000905b8282101561070c578382604002016002806020026040519081016040528092919082600260200280828437600081840152601f19601f820116905080830192505050505050815260200190600101906106b8565b50505050919291929080604001906002806020026040519081016040528092919082600260200280828437600081840152601f19601f820116905080830192505050505050919291929080604001906002806020026040519081016040528092919082600260200280828437600081840152601f19601f820116905080830192505050505050919291929080604001906002806020026040519081016040528092919082600260200280828437600081840152601f19601f820116905080830192505050505050919291929080604001906002806020026040519081016040528092919082600260200280828437600081840152601f19601f820116905080830192505050505050919291929080604001906002806020026040519081016040528092919082600260200280828437600081840152601f19601f820116905080830192505050505050919291929080604001906002806020026040519081016040528092919082600260200280828437600081840152601f19601f820116905080830192505050505050919291929050505061193d565b005b6109ff600480360360608110156108bb57600080fd5b8101908080359060200190929190803590602001906401000000008111156108e257600080fd5b8201836020820111156108f457600080fd5b8035906020019184600183028401116401000000008311171561091657600080fd5b91908080601f016020809104026020016040519081016040528093929190818152602001838380828437600081840152601f19601f8201169050808301925050505050505091929192908035906020019064010000000081111561097957600080fd5b82018360208201111561098b57600080fd5b803590602001918460018302840111640100000000831117156109ad57600080fd5b91908080601f016020809104026020016040519081016040528093929190818152602001838380828437600081840152601f19601f820116905080830192505050505050509192919290505050611f3c565b005b610a4d60048036036040811015610a1757600080fd5b81019080803573ffffffffffffffffffffffffffffffffffffffff16906020019092919080359060200190929190505050611f41565b604051808215151515815260200191505060405180910390f35b610ad360048036036060811015610a7d57600080fd5b81019080803573ffffffffffffffffffffffffffffffffffffffff169060200190929190803573ffffffffffffffffffffffffffffffffffffffff16906020019092919080359060200190929190505050612024565b005b610b0160048036036020811015610aeb57600080fd5b8101908080359060200190929190505050612045565b6040518082815260200191505060405180910390f35b610b4360048036036020811015610b2d57600080fd5b810190808035906020019092919050505061207d565b604051808273ffffffffffffffffffffffffffffffffffffffff1673ffffffffffffffffffffffffffffffffffffffff16815260200191505060405180910390f35b610bc760048036036020811015610b9b57600080fd5b81019080803573ffffffffffffffffffffffffffffffffffffffff1690602001909291905050506120fb565b6040518082815260200191505060405180910390f35b610be5612186565b604051808273ffffffffffffffffffffffffffffffffffffffff1673ffffffffffffffffffffffffffffffffffffffff16815260200191505060405180910390f35b610c2f6121af565b6040518080602001828103825283818151815260200191508051906020019080838360005b83811015610c6f578082015181840152602081019050610c54565b50505050905090810190601f168015610c9c5780820380516001836020036101000a031916815260200191505b509250505060405180910390f35b610cf860048036036040811015610cc057600080fd5b81019080803573ffffffffffffffffffffffffffffffffffffffff169060200190929190803515159060200190929190505050612251565b005b610dfd60048036036080811015610d1057600080fd5b81019080803573ffffffffffffffffffffffffffffffffffffffff169060200190929190803573ffffffffffffffffffffffffffffffffffffffff1690602001909291908035906020019092919080359060200190640100000000811115610d7757600080fd5b820183602082011115610d8957600080fd5b80359060200191846001830284011164010000000083111715610dab57600080fd5b91908080601f016020809104026020016040519081016040528093929190818152602001838380828437600081840152601f19601f82011690508083019250505050505050919291929050505061238d565b005b610e5560048036036060811015610e1557600080fd5b81019080803573ffffffffffffffffffffffffffffffffffffffff16906020019092919080359060200190929190803590602001909291905050506123b5565b005b610e8360048036036020811015610e6d57600080fd5b8101908080359060200190929190505050612545565b6040518080602001828103825283818151815260200191508051906020019080838360005b83811015610ec3578082015181840152602081019050610ea8565b50505050905090810190601f168015610ef05780820380516001836020036101000a031916815260200191505b509250505060405180910390f35b610f0661260e565b604051808273ffffffffffffffffffffffffffffffffffffffff1673ffffffffffffffffffffffffffffffffffffffff16815260200191505060405180910390f35b61121660048036036102c0811015610f5f57600080fd5b81019080803573ffffffffffffffffffffffffffffffffffffffff1690602001909291908035906020019092919080604001906002806020026040519081016040528092919082600260200280828437600081840152601f19601f820116905080830192505050505050919291929080604001906002806020026040519081016040528092919082600260200280828437600081840152601f19601f82011690508083019250505050505091929192908060800190600280602002604051908101604052809291906000905b8282101561107f578382604002016002806020026040519081016040528092919082600260200280828437600081840152601f19601f8201169050808301925050505050508152602001906001019061102b565b50505050919291929080604001906002806020026040519081016040528092919082600260200280828437600081840152601f19601f820116905080830192505050505050919291929080604001906002806020026040519081016040528092919082600260200280828437600081840152601f19601f820116905080830192505050505050919291929080604001906002806020026040519081016040528092919082600260200280828437600081840152601f19601f820116905080830192505050505050919291929080604001906002806020026040519081016040528092919082600260200280828437600081840152601f19601f820116905080830192505050505050919291929080604001906002806020026040519081016040528092919082600260200280828437600081840152601f19601f820116905080830192505050505050919291929080604001906002806020026040519081016040528092919082600260200280828437600081840152601f19601f8201169050808301925050505050509192919290505050612634565b005b61127a6004803603604081101561122e57600080fd5b81019080803573ffffffffffffffffffffffffffffffffffffffff169060200190929190803573ffffffffffffffffffffffffffffffffffffffff169060200190929190505050612c28565b604051808215151515815260200191505060405180910390f35b6112d6600480360360208110156112aa57600080fd5b81019080803573ffffffffffffffffffffffffffffffffffffffff169060200190929190505050612cbc565b005b600060016000837bffffffffffffffffffffffffffffffffffffffffffffffffffffffff19167bffffffffffffffffffffffffffffffffffffffffffffffffffffffff1916815260200190815260200160002060009054906101000a900460ff169050919050565b6000809054906101000a900473ffffffffffffffffffffffffffffffffffffffff1673ffffffffffffffffffffffffffffffffffffffff163373ffffffffffffffffffffffffffffffffffffffff16141515611404576040517f08c379a000000000000000000000000000000000000000000000000000000000815260040180806020018281038252601e8152602001807f43616c6c6572206973206e6f74206120636f6e7472616374206f776e6572000081525060200191505060405180910390fd5b80600060146101000a81548160ff021916908315150217905550801561148c577f62e78cea01bee320cd4e420270b5ea74000d11b0c9f74754ebdbfc544b05a25833604051808273ffffffffffffffffffffffffffffffffffffffff1673ffffffffffffffffffffffffffffffffffffffff16815260200191505060405180910390a16114f0565b7f5db9ee0a495bf2e6ff9c91a7834c1ba4fdd244a5e8aa4e537bd38aeae4b073aa33604051808273ffffffffffffffffffffffffffffffffffffffff1673ffffffffffffffffffffffffffffffffffffffff16815260200191505060405180910390a15b50565b6060600f8054600181600116156101000203166002900480601f01602080910402602001604051908101604052809291908181526020018280546001816001161561010002031660029004801561158b5780601f106115605761010080835404028352916020019161158b565b820191906000526020600020905b81548152906001019060200180831161156e57829003601f168201915b5050505050905090565b60006003600083815260200190815260200160002060009054906101000a900473ffffffffffffffffffffffffffffffffffffffff169050919050565b60006115dd8261207d565b90508073ffffffffffffffffffffffffffffffffffffffff168373ffffffffffffffffffffffffffffffffffffffff1614151515611666576040517f08c379a000000000000000000000000000000000000000000000000000000000815260040180806020018281038252602481526020018061426c6024913960400191505060405180910390fd5b8073ffffffffffffffffffffffffffffffffffffffff163373ffffffffffffffffffffffffffffffffffffffff1614806116a657506116a58133612c28565b5b15156116fd576040517f08c379a00000000000000000000000000000000000000000000000000000000081526004018080602001828103825260368152602001806142bb6036913960400191505060405180910390fd5b826003600084815260200190815260200160002060006101000a81548173ffffffffffffffffffffffffffffffffffffffff021916908373ffffffffffffffffffffffffffffffffffffffff160217905550818373ffffffffffffffffffffffffffffffffffffffff163373ffffffffffffffffffffffffffffffffffffffff167f8c5be1e5ebec7d5bd14f71427d1e84f3dd0314c0f7b2291e5b200ac8c7c3b92560405160405180910390a4505050565b6000600880549050905090565b606060118054600181600116156101000203166002900480601f0160208091040260200160405190810160405280929190818152602001828054600181600116156101000203166002900480156118545780601f1061182957610100808354040283529160200191611854565b820191906000526020600020905b81548152906001019060200180831161183757829003601f168201915b5050505050905090565b6118683382612e62565b151561187357600080fd5b61187e838383612ef7565b505050565b6118c2828260006040519080825280601f01601f1916602001820160405280156118bc5781602001600182028038833980820191505090505b50611f3c565b5050565b60006118d1836120fb565b821015156118de57600080fd5b600660008473ffffffffffffffffffffffffffffffffffffffff1673ffffffffffffffffffffffffffffffffffffffff1681526020019081526020016000208281548110151561192a57fe5b9060005260206000200154905092915050565b6000898989898989898989604051602001808a600260200280838360005b8381101561197657808201518184015260208101905061195b565b5050505090500189600260200280838360005b838110156119a4578082015181840152602081019050611989565b505050509050018860026000925b818410156119f85782846020020151600260200280838360005b838110156119e75780820151818401526020810190506119cc565b5050505090500192600101926119b2565b9250505087600260200280838360005b83811015611a23578082015181840152602081019050611a08565b5050505090500186600260200280838360005b83811015611a51578082015181840152602081019050611a36565b5050505090500185600260200280838360005b83811015611a7f578082015181840152602081019050611a64565b5050505090500184600260200280838360005b83811015611aad578082015181840152602081019050611a92565b5050505090500183600260200280838360005b83811015611adb578082015181840152602081019050611ac0565b5050505090500182600260200280838360005b83811015611b09578082015181840152602081019050611aee565b505050509050019950505050505050505050604051602081830303815290604052805190602001209050600073ffffffffffffffffffffffffffffffffffffffff166015600083815260200190815260200160002060010160009054906101000a900473ffffffffffffffffffffffffffffffffffffffff1673ffffffffffffffffffffffffffffffffffffffff16141515611c0d576040517f08c379a00000000000000000000000000000000000000000000000000000000081526004018080602001828103825260168152602001807f536f6c7574696f6e20616c726561647920757365642e0000000000000000000081525060200191505060405180910390fd5b601360009054906101000a900473ffffffffffffffffffffffffffffffffffffffff1673ffffffffffffffffffffffffffffffffffffffff1663fe01ff628b8b8b8b8b8b8b8b8b6040518a63ffffffff167c0100000000000000000000000000000000000000000000000000000000028152600401808a600260200280838360005b83811015611caa578082015181840152602081019050611c8f565b5050505090500189600260200280838360005b83811015611cd8578082015181840152602081019050611cbd565b505050509050018860026000925b81841015611d2c5782846020020151600260200280838360005b83811015611d1b578082015181840152602081019050611d00565b505050509050019260010192611ce6565b9250505087600260200280838360005b83811015611d57578082015181840152602081019050611d3c565b5050505090500186600260200280838360005b83811015611d85578082015181840152602081019050611d6a565b5050505090500185600260200280838360005b83811015611db3578082015181840152602081019050611d98565b5050505090500184600260200280838360005b83811015611de1578082015181840152602081019050611dc6565b5050505090500183600260200280838360005b83811015611e0f578082015181840152602081019050611df4565b5050505090500182600260200280838360005b83811015611e3d578082015181840152602081019050611e22565b505050509050019950505050505050505050602060405180830381600087803b158015611e6957600080fd5b505af1158015611e7d573d6000803e3d6000fd5b505050506040513d6020811015611e9357600080fd5b81019080805190602001909291905050501515611f18576040517f08c379a00000000000000000000000000000000000000000000000000000000081526004018080602001828103825260138152602001807f20736f6c7574696f6e206e6f742076616c69640000000000000000000000000081525060200191505060405180910390fd5b611f238c8c836123b5565b611f2d8c8c611f41565b50505050505050505050505050565b505050565b60008060009054906101000a900473ffffffffffffffffffffffffffffffffffffffff1673ffffffffffffffffffffffffffffffffffffffff163373ffffffffffffffffffffffffffffffffffffffff16141515612007576040517f08c379a000000000000000000000000000000000000000000000000000000000815260040180806020018281038252601e8152602001807f43616c6c6572206973206e6f74206120636f6e7472616374206f776e6572000081525060200191505060405180910390fd5b6120118383612f1b565b61201a82612f3c565b6001905092915050565b612040838383602060405190810160405280600081525061238d565b505050565b600061204f6117af565b8210151561205c57600080fd5b60088281548110151561206b57fe5b90600052602060002001549050919050565b6000806002600084815260200190815260200160002060009054906101000a900473ffffffffffffffffffffffffffffffffffffffff169050600073ffffffffffffffffffffffffffffffffffffffff168173ffffffffffffffffffffffffffffffffffffffff16141515156120f257600080fd5b80915050919050565b60008073ffffffffffffffffffffffffffffffffffffffff168273ffffffffffffffffffffffffffffffffffffffff161415151561213857600080fd5b61217f600460008473ffffffffffffffffffffffffffffffffffffffff1673ffffffffffffffffffffffffffffffffffffffff16815260200190815260200160002061308f565b9050919050565b60008060009054906101000a900473ffffffffffffffffffffffffffffffffffffffff16905090565b606060108054600181600116156101000203166002900480601f0160208091040260200160405190810160405280929190818152602001828054600181600116156101000203166002900480156122475780601f1061221c57610100808354040283529160200191612247565b820191906000526020600020905b81548152906001019060200180831161222a57829003601f168201915b5050505050905090565b3373ffffffffffffffffffffffffffffffffffffffff168273ffffffffffffffffffffffffffffffffffffffff161415151561228c57600080fd5b80600560003373ffffffffffffffffffffffffffffffffffffffff1673ffffffffffffffffffffffffffffffffffffffff16815260200190815260200160002060008473ffffffffffffffffffffffffffffffffffffffff1673ffffffffffffffffffffffffffffffffffffffff16815260200190815260200160002060006101000a81548160ff0219169083151502179055508173ffffffffffffffffffffffffffffffffffffffff163373ffffffffffffffffffffffffffffffffffffffff167f17307eab39ab6107e8899845ad3d59bd9653f200f220920489ca2b5937696c3183604051808215151515815260200191505060405180910390a35050565b61239884848461185e565b6123a48484848461309d565b15156123af57600080fd5b50505050565b6123bd61416a565b60408051908101604052808481526020018573ffffffffffffffffffffffffffffffffffffffff168152509050601481908060018154018082558091505090600182039060005260206000209060020201600090919290919091506000820151816000015560208201518160010160006101000a81548173ffffffffffffffffffffffffffffffffffffffff021916908373ffffffffffffffffffffffffffffffffffffffff16021790555050505080601560008481526020019081526020016000206000820151816000015560208201518160010160006101000a81548173ffffffffffffffffffffffffffffffffffffffff021916908373ffffffffffffffffffffffffffffffffffffffff1602179055509050507f078793128cefb19aac38a33f9e5df39f67716907f6d747e8065545699e0b2b8d8385604051808381526020018273ffffffffffffffffffffffffffffffffffffffff1673ffffffffffffffffffffffffffffffffffffffff1681526020019250505060405180910390a150505050565b6060612550826132c0565b151561255b57600080fd5b601260008381526020019081526020016000208054600181600116156101000203166002900480601f0160208091040260200160405190810160405280929190818152602001828054600181600116156101000203166002900480156126025780601f106125d757610100808354040283529160200191612602565b820191906000526020600020905b8154815290600101906020018083116125e557829003601f168201915b50505050509050919050565b601360009054906101000a900473ffffffffffffffffffffffffffffffffffffffff1681565b601360009054906101000a900473ffffffffffffffffffffffffffffffffffffffff1673ffffffffffffffffffffffffffffffffffffffff1663fe01ff628a8a8a8a8a8a8a8a8a6040518a63ffffffff167c0100000000000000000000000000000000000000000000000000000000028152600401808a600260200280838360005b838110156126d15780820151818401526020810190506126b6565b5050505090500189600260200280838360005b838110156126ff5780820151818401526020810190506126e4565b505050509050018860026000925b818410156127535782846020020151600260200280838360005b83811015612742578082015181840152602081019050612727565b50505050905001926001019261270d565b9250505087600260200280838360005b8381101561277e578082015181840152602081019050612763565b5050505090500186600260200280838360005b838110156127ac578082015181840152602081019050612791565b5050505090500185600260200280838360005b838110156127da5780820151818401526020810190506127bf565b5050505090500184600260200280838360005b838110156128085780820151818401526020810190506127ed565b5050505090500183600260200280838360005b8381101561283657808201518184015260208101905061281b565b5050505090500182600260200280838360005b83811015612864578082015181840152602081019050612849565b505050509050019950505050505050505050602060405180830381600087803b15801561289057600080fd5b505af11580156128a4573d6000803e3d6000fd5b505050506040513d60208110156128ba57600080fd5b8101908080519060200190929190505050151561293f576040517f08c379a00000000000000000000000000000000000000000000000000000000081526004018080602001828103825260128152602001807f736f6c7574696f6e206e6f742076616c6964000000000000000000000000000081525060200191505060405180910390fd5b6000898989898989898989604051602001808a600260200280838360005b8381101561297857808201518184015260208101905061295d565b5050505090500189600260200280838360005b838110156129a657808201518184015260208101905061298b565b505050509050018860026000925b818410156129fa5782846020020151600260200280838360005b838110156129e95780820151818401526020810190506129ce565b5050505090500192600101926129b4565b9250505087600260200280838360005b83811015612a25578082015181840152602081019050612a0a565b5050505090500186600260200280838360005b83811015612a53578082015181840152602081019050612a38565b5050505090500185600260200280838360005b83811015612a81578082015181840152602081019050612a66565b5050505090500184600260200280838360005b83811015612aaf578082015181840152602081019050612a94565b5050505090500183600260200280838360005b83811015612add578082015181840152602081019050612ac2565b5050505090500182600260200280838360005b83811015612b0b578082015181840152602081019050612af0565b505050509050019950505050505050505050604051602081830303815290604052805190602001209050600073ffffffffffffffffffffffffffffffffffffffff166015600083815260200190815260200160002060010160009054906101000a900473ffffffffffffffffffffffffffffffffffffffff1673ffffffffffffffffffffffffffffffffffffffff16141515612c0f576040517f08c379a00000000000000000000000000000000000000000000000000000000081526004018080602001828103825260168152602001807f536f6c7574696f6e20616c726561647920757365642e0000000000000000000081525060200191505060405180910390fd5b612c1a8c8c836123b5565b505050505050505050505050565b6000600560008473ffffffffffffffffffffffffffffffffffffffff1673ffffffffffffffffffffffffffffffffffffffff16815260200190815260200160002060008373ffffffffffffffffffffffffffffffffffffffff1673ffffffffffffffffffffffffffffffffffffffff16815260200190815260200160002060009054906101000a900460ff16905092915050565b6000809054906101000a900473ffffffffffffffffffffffffffffffffffffffff1673ffffffffffffffffffffffffffffffffffffffff163373ffffffffffffffffffffffffffffffffffffffff16141515612d80576040517f08c379a000000000000000000000000000000000000000000000000000000000815260040180806020018281038252601e8152602001807f43616c6c6572206973206e6f74206120636f6e7472616374206f776e6572000081525060200191505060405180910390fd5b600073ffffffffffffffffffffffffffffffffffffffff168173ffffffffffffffffffffffffffffffffffffffff1614151515612dbc57600080fd5b806000806101000a81548173ffffffffffffffffffffffffffffffffffffffff021916908373ffffffffffffffffffffffffffffffffffffffff1602179055507f04dba622d284ed0014ee4b9a6a68386be1a4c08a4913ae272de89199cc68616381604051808273ffffffffffffffffffffffffffffffffffffffff1673ffffffffffffffffffffffffffffffffffffffff16815260200191505060405180910390a150565b600080612e6e8361207d565b90508073ffffffffffffffffffffffffffffffffffffffff168473ffffffffffffffffffffffffffffffffffffffff161480612edd57508373ffffffffffffffffffffffffffffffffffffffff16612ec584611595565b73ffffffffffffffffffffffffffffffffffffffff16145b80612eee5750612eed8185612c28565b5b91505092915050565b612f02838383613332565b612f0c83826135ae565b612f168282613752565b505050565b612f258282613819565b612f2f8282613752565b612f3881613a35565b5050565b612f45816132c0565b1515612fb9576040517f08c379a00000000000000000000000000000000000000000000000000000000081526004018080602001828103825260168152602001807f746f6b656e494420646f6573206e6f742065786973740000000000000000000081525060200191505060405180910390fd5b61306560118054600181600116156101000203166002900480601f0160208091040260200160405190810160405280929190818152602001828054600181600116156101000203166002900480156130525780601f1061302757610100808354040283529160200191613052565b820191906000526020600020905b81548152906001019060200180831161303557829003601f168201915b505050505061306083613a81565b613bda565b60126000838152602001908152602001600020908051906020019061308b92919061419a565b5050565b600081600001549050919050565b60006130be8473ffffffffffffffffffffffffffffffffffffffff16613c21565b15156130cd57600190506132b8565b60008473ffffffffffffffffffffffffffffffffffffffff1663150b7a02338887876040518563ffffffff167c0100000000000000000000000000000000000000000000000000000000028152600401808573ffffffffffffffffffffffffffffffffffffffff1673ffffffffffffffffffffffffffffffffffffffff1681526020018473ffffffffffffffffffffffffffffffffffffffff1673ffffffffffffffffffffffffffffffffffffffff16815260200183815260200180602001828103825283818151815260200191508051906020019080838360005b838110156131c45780820151818401526020810190506131a9565b50505050905090810190601f1680156131f15780820380516001836020036101000a031916815260200191505b5095505050505050602060405180830381600087803b15801561321357600080fd5b505af1158015613227573d6000803e3d6000fd5b505050506040513d602081101561323d57600080fd5b8101908080519060200190929190505050905063150b7a027c0100000000000000000000000000000000000000000000000000000000027bffffffffffffffffffffffffffffffffffffffffffffffffffffffff1916817bffffffffffffffffffffffffffffffffffffffffffffffffffffffff1916149150505b949350505050565b6000806002600084815260200190815260200160002060009054906101000a900473ffffffffffffffffffffffffffffffffffffffff169050600073ffffffffffffffffffffffffffffffffffffffff168173ffffffffffffffffffffffffffffffffffffffff161415915050919050565b61333b8161207d565b73ffffffffffffffffffffffffffffffffffffffff168373ffffffffffffffffffffffffffffffffffffffff161415156133c0576040517f08c379a000000000000000000000000000000000000000000000000000000000815260040180806020018281038252602b815260200180614290602b913960400191505060405180910390fd5b600073ffffffffffffffffffffffffffffffffffffffff168273ffffffffffffffffffffffffffffffffffffffff1614151515613465576040517f08c379a00000000000000000000000000000000000000000000000000000000081526004018080602001828103825260178152602001807f27746f27206164647265737320697320696e76616c696400000000000000000081525060200191505060405180910390fd5b61346e81613c34565b6134b5600460008573ffffffffffffffffffffffffffffffffffffffff1673ffffffffffffffffffffffffffffffffffffffff168152602001908152602001600020613cf4565b6134fc600460008473ffffffffffffffffffffffffffffffffffffffff1673ffffffffffffffffffffffffffffffffffffffff168152602001908152602001600020613d17565b816002600083815260200190815260200160002060006101000a81548173ffffffffffffffffffffffffffffffffffffffff021916908373ffffffffffffffffffffffffffffffffffffffff160217905550808273ffffffffffffffffffffffffffffffffffffffff168473ffffffffffffffffffffffffffffffffffffffff167fddf252ad1be2c89b69c2b068fc378daa952ba7f163c4a11628f55a4df523b3ef60405160405180910390a4505050565b60006136066001600660008673ffffffffffffffffffffffffffffffffffffffff1673ffffffffffffffffffffffffffffffffffffffff16815260200190815260200160002080549050613d2d90919063ffffffff16565b905060006007600084815260200190815260200160002054905081811415156136f9576000600660008673ffffffffffffffffffffffffffffffffffffffff1673ffffffffffffffffffffffffffffffffffffffff1681526020019081526020016000208381548110151561367757fe5b9060005260206000200154905080600660008773ffffffffffffffffffffffffffffffffffffffff1673ffffffffffffffffffffffffffffffffffffffff168152602001908152602001600020838154811015156136d157fe5b9060005260206000200181905550816007600083815260200190815260200160002081905550505b600660008573ffffffffffffffffffffffffffffffffffffffff1673ffffffffffffffffffffffffffffffffffffffff16815260200190815260200160002080548091906001900361374b919061421a565b5050505050565b600660008373ffffffffffffffffffffffffffffffffffffffff1673ffffffffffffffffffffffffffffffffffffffff168152602001908152602001600020805490506007600083815260200190815260200160002081905550600660008373ffffffffffffffffffffffffffffffffffffffff1673ffffffffffffffffffffffffffffffffffffffff1681526020019081526020016000208190806001815401808255809150509060018203906000526020600020016000909192909190915055505050565b600073ffffffffffffffffffffffffffffffffffffffff168273ffffffffffffffffffffffffffffffffffffffff16141515156138be576040517f08c379a00000000000000000000000000000000000000000000000000000000081526004018080602001828103825260138152602001807f206164647265737320697320696e76616c69640000000000000000000000000081525060200191505060405180910390fd5b6138c7816132c0565b15151561393c576040517f08c379a00000000000000000000000000000000000000000000000000000000081526004018080602001828103825260168152602001807f746f6b656e496420616c7265616479206578697374730000000000000000000081525060200191505060405180910390fd5b816002600083815260200190815260200160002060006101000a81548173ffffffffffffffffffffffffffffffffffffffff021916908373ffffffffffffffffffffffffffffffffffffffff1602179055506139d5600460008473ffffffffffffffffffffffffffffffffffffffff1673ffffffffffffffffffffffffffffffffffffffff168152602001908152602001600020613d17565b808273ffffffffffffffffffffffffffffffffffffffff16600073ffffffffffffffffffffffffffffffffffffffff167fddf252ad1be2c89b69c2b068fc378daa952ba7f163c4a11628f55a4df523b3ef60405160405180910390a45050565b6008805490506009600083815260200190815260200160002081905550600881908060018154018082558091505090600182039060005260206000200160009091929091909150555050565b60606000821415613ac9576040805190810160405280600181526020017f30000000000000000000000000000000000000000000000000000000000000008152509050613bd5565b600082905060005b600082141515613af7578080600101915050600a82811515613aef57fe5b049150613ad1565b6060816040519080825280601f01601f191660200182016040528015613b2c5781602001600182028038833980820191505090505b50905060006001830390505b600086141515613bcd57600a86811515613b4e57fe5b066030017f010000000000000000000000000000000000000000000000000000000000000002828280600190039350815181101515613b8957fe5b9060200101907effffffffffffffffffffffffffffffffffffffffffffffffffffffffffffff1916908160001a905350600a86811515613bc557fe5b049550613b38565b819450505050505b919050565b6060613c198383602060405190810160405280600081525060206040519081016040528060008152506020604051908101604052806000815250613d4f565b905092915050565b600080823b905060008111915050919050565b600073ffffffffffffffffffffffffffffffffffffffff166003600083815260200190815260200160002060009054906101000a900473ffffffffffffffffffffffffffffffffffffffff1673ffffffffffffffffffffffffffffffffffffffff16141515613cf15760006003600083815260200190815260200160002060006101000a81548173ffffffffffffffffffffffffffffffffffffffff021916908373ffffffffffffffffffffffffffffffffffffffff1602179055505b50565b613d0c60018260000154613d2d90919063ffffffff16565b816000018190555050565b6001816000016000828254019250508190555050565b6000828211151515613d3e57600080fd5b600082840390508091505092915050565b6060808690506060869050606086905060608690506060869050606081518351855187518951010101016040519080825280601f01601f191660200182016040528015613dab5781602001600182028038833980820191505090505b509050606081905060008090506000809050600090505b8851811015613e75578881815181101515613dd957fe5b9060200101517f010000000000000000000000000000000000000000000000000000000000000090047f0100000000000000000000000000000000000000000000000000000000000000028383806001019450815181101515613e3857fe5b9060200101907effffffffffffffffffffffffffffffffffffffffffffffffffffffffffffff1916908160001a9053508080600101915050613dc2565b600090505b8751811015613f2d578781815181101515613e9157fe5b9060200101517f010000000000000000000000000000000000000000000000000000000000000090047f0100000000000000000000000000000000000000000000000000000000000000028383806001019450815181101515613ef057fe5b9060200101907effffffffffffffffffffffffffffffffffffffffffffffffffffffffffffff1916908160001a9053508080600101915050613e7a565b600090505b8651811015613fe5578681815181101515613f4957fe5b9060200101517f010000000000000000000000000000000000000000000000000000000000000090047f0100000000000000000000000000000000000000000000000000000000000000028383806001019450815181101515613fa857fe5b9060200101907effffffffffffffffffffffffffffffffffffffffffffffffffffffffffffff1916908160001a9053508080600101915050613f32565b600090505b855181101561409d57858181518110151561400157fe5b9060200101517f010000000000000000000000000000000000000000000000000000000000000090047f010000000000000000000000000000000000000000000000000000000000000002838380600101945081518110151561406057fe5b9060200101907effffffffffffffffffffffffffffffffffffffffffffffffffffffffffffff1916908160001a9053508080600101915050613fea565b600090505b84518110156141555784818151811015156140b957fe5b9060200101517f010000000000000000000000000000000000000000000000000000000000000090047f010000000000000000000000000000000000000000000000000000000000000002838380600101945081518110151561411857fe5b9060200101907effffffffffffffffffffffffffffffffffffffffffffffffffffffffffffff1916908160001a90535080806001019150506140a2565b82995050505050505050505095945050505050565b604080519081016040528060008152602001600073ffffffffffffffffffffffffffffffffffffffff1681525090565b828054600181600116156101000203166002900490600052602060002090601f016020900481019282601f106141db57805160ff1916838001178555614209565b82800160010185558215614209579182015b828111156142085782518255916020019190600101906141ed565b5b5090506142169190614246565b5090565b815481835581811115614241578183600052602060002091820191016142409190614246565b5b505050565b61426891905b8082111561426457600081600090555060010161424c565b5090565b9056fe27746f2720697320616c726561647920746865206f776e6572206f6620746f6b656e696466726f6d2068617320746f20626520746865206f776e6572206f662074686520676976656e20746f6b656e63616e206f6e6c792062652063616c6c656420627920746f6b656e206f776e6572206f7220617070726f766564206f70657261746f72a165627a7a72305820d2823b2acc08aabb3990de46afd474a690d9fa5e5d1db60d792a4633e8311c1e002968747470733a2f2f73332d75732d776573742d322e616d617a6f6e6177732e636f6d2f756461636974792d626c6f636b636861696e2f63617073746f6e652f",
  "source": "pragma solidity >=0.4.21 <0.6.0;\n//pragma experimental ABIEncoderV2;\n\nimport \"openzeppelin-solidity/contracts/utils/Address.sol\";\nimport \"./Verifier.sol\";\nimport \"./ERC721Mintable.sol\";\n//  define a contract call to the zokrates generated solidity contract <Verifier> or <renamedVerifier>\n\ncontract SquareVerifier is Verifier{\n\n}\n\n//  define another contract named SolnSquareVerifier that inherits from your ERC721Mintable class\ncontract SolnSquareVerifier is  RealEstateERC721Token{\n    SquareVerifier public verifierContract;\n\n    constructor(address verifierAddress)\n          RealEstateERC721Token() \n          public\n          {\n              verifierContract = SquareVerifier(verifierAddress);\n\n          }     \n\n\n//  define a solutions struct that can hold an index & an address\nstruct Solutions{\n    uint tokenId;\n    address to;\n\n}\n\n// define an array of the above struct\nSolutions[] SolutionsArray;\n\n// define a mapping to store unique solutions submitted\nmapping (bytes32 => Solutions) private uniqueSolutions;\n\n\n//  Create an event to emit when a solution is added\n\nevent SolutionAdded(uint tokenid,address to);\n\n//  Create a function to add the solutions to the array and emit the event\n\nfunction AddSolution(address _to,uint _tokenId,bytes32 key)\n                    public\n{\n    Solutions memory _soln = Solutions({tokenId:_tokenId,to:_to});\n    SolutionsArray.push(_soln);\n    uniqueSolutions[key] = _soln;\n    emit SolutionAdded(_tokenId,_to);\n}\n\n\n\nfunction CanMintToken(address _to,uint _tokenId,\n            uint[2] memory a,\n            uint[2] memory a_p,\n            uint[2][2] memory b,\n            uint[2] memory b_p,\n            uint[2] memory c,\n            uint[2] memory c_p,\n            uint[2] memory h,\n            uint[2] memory k,\n            uint[2] memory input)\n            public\n            \n{\n     // check if solution is valid\n    require(verifierContract.verifyTx(a, a_p, b, b_p, c, c_p, h, k, input), \"solution not valid\");\n    bytes32 key = keccak256(abi.encodePacked(a,a_p,b,b_p,c,c_p,h,k,input));\n    require(uniqueSolutions[key].to == address(0),\"Solution already used.\");    \n       \n    AddSolution(_to,_tokenId,key);\n      \n}\n\n//  Create a function to mint new NFT only after the solution has been verified\n//  - make sure the solution is unique (has not been used before)\n//  - make sure you handle metadata as well as tokenSuplly\nfunction mintToken(address _to,uint _tokenId,\n            uint[2] memory a,\n            uint[2] memory a_p,\n            uint[2][2] memory b,\n            uint[2] memory b_p,\n            uint[2] memory c,\n            uint[2] memory c_p,\n            uint[2] memory h,\n            uint[2] memory k,\n            uint[2] memory input)\n            public\n{\n    bytes32 key = keccak256(abi.encodePacked(a,a_p,b,b_p,c,c_p,h,k,input));\n    require(uniqueSolutions[key].to == address(0),\"Solution already used.\");\n    require(verifierContract.verifyTx(a,a_p,b,b_p,c,c_p,h,k,input),\" solution not valid\");\n    \n    AddSolution(_to,_tokenId,key);\n    super.mint(_to,_tokenId);\n}\n\n\n\n}\n\n\n\n\n\n\n\n\n\n\n\n\n\n\n\n\n\n\n\n\n\n\n\n\n\n\n\n\n",
  "sourcePath": "/Users/chacha/Mine/blockchain-identity/project/eighth/eth-contracts/contracts/SolnSquareVerifier.sol",
  "compiler": {
    "name": "solc",
    "version": "0.5.2+commit.1df8f40c.Emscripten.clang"
  },
  "schemaVersion": "3.0.11",
  "updatedAt": "2020-01-19T12:57:20.315Z",
  "devdoc": {
    "methods": {
      "isApprovedForAll(address,address)": {
        "details": "Tells whether an operator is approved by a given owner",
        "params": {
          "operator": "operator address which you want to query the approval of",
          "owner": "owner address which you want to query the approval of"
        },
        "return": "bool whether the given operator is approved by the given owner"
      },
      "setApprovalForAll(address,bool)": {
        "details": "Sets or unsets the approval of a given operator An operator is allowed to transfer all tokens of the sender on their behalf",
        "params": {
          "approved": "representing the status of the approval to be set",
          "to": "operator address to set the approval"
        }
      },
      "supportsInterface(bytes4)": {
        "details": "implement supportsInterface(bytes4) using a lookup table"
      },
      "tokenByIndex(uint256)": {
        "details": "Gets the token ID at a given index of all the tokens in this contract Reverts if the index is greater or equal to the total number of tokens",
        "params": {
          "index": "uint256 representing the index to be accessed of the tokens list"
        },
        "return": "uint256 token ID at the given index of the tokens list"
      },
      "tokenOfOwnerByIndex(address,uint256)": {
        "details": "Gets the token ID at a given index of the tokens list of the requested owner",
        "params": {
          "index": "uint256 representing the index to be accessed of the requested tokens list",
          "owner": "address owning the tokens list to be accessed"
        },
        "return": "uint256 token ID at the given index of the tokens list owned by the requested address"
      },
      "totalSupply()": {
        "details": "Gets the total amount of tokens stored by the contract",
        "return": "uint256 representing the total amount of tokens"
      }
    }
  },
  "userdoc": {
    "methods": {}
  }
}